{
  "contractName": "mini",
  "abi": [
    {
      "inputs": [
        {
          "internalType": "uint256",
          "name": "",
          "type": "uint256"
        }
      ],
      "name": "borower_list",
      "outputs": [
        {
          "internalType": "address",
          "name": "",
          "type": "address"
        }
      ],
      "stateMutability": "view",
      "type": "function",
      "constant": true
    },
    {
      "inputs": [
        {
          "internalType": "uint256",
          "name": "",
          "type": "uint256"
        }
      ],
      "name": "lender_list",
      "outputs": [
        {
          "internalType": "address",
          "name": "",
          "type": "address"
        }
      ],
      "stateMutability": "view",
      "type": "function",
      "constant": true
    },
    {
      "inputs": [
        {
          "internalType": "string",
          "name": "name",
          "type": "string"
        },
        {
          "internalType": "string",
          "name": "email",
          "type": "string"
        },
        {
          "internalType": "uint256",
          "name": "pos",
          "type": "uint256"
        },
        {
          "internalType": "string",
          "name": "aadhar",
          "type": "string"
        },
        {
          "internalType": "string",
          "name": "pan",
          "type": "string"
        },
        {
          "internalType": "uint256",
          "name": "score",
          "type": "uint256"
        },
        {
          "internalType": "uint256",
          "name": "phone",
          "type": "uint256"
        },
        {
          "internalType": "string",
          "name": "gender",
          "type": "string"
        },
        {
          "internalType": "uint256",
          "name": "a_income",
          "type": "uint256"
        },
        {
          "internalType": "uint256",
          "name": "no_of_depeden",
          "type": "uint256"
        }
      ],
      "name": "user",
      "outputs": [
        {
          "internalType": "string",
          "name": "",
          "type": "string"
        }
      ],
      "stateMutability": "nonpayable",
      "type": "function"
    },
    {
      "inputs": [
        {
          "internalType": "address payable",
          "name": "to",
          "type": "address"
        },
        {
          "internalType": "uint256",
          "name": "paisaa",
          "type": "uint256"
        }
      ],
      "name": "sendmoney",
      "outputs": [
        {
          "internalType": "uint256",
          "name": "",
          "type": "uint256"
        }
      ],
      "stateMutability": "payable",
      "type": "function",
      "payable": true
    },
    {
      "inputs": [
        {
          "internalType": "address payable",
          "name": "to",
          "type": "address"
        }
      ],
      "name": "sendmoneyy",
      "outputs": [
        {
          "internalType": "uint256",
          "name": "",
          "type": "uint256"
        }
      ],
      "stateMutability": "payable",
      "type": "function",
      "payable": true
    },
    {
      "inputs": [],
      "name": "getBalance",
      "outputs": [
        {
          "internalType": "uint256",
          "name": "",
          "type": "uint256"
        },
        {
          "internalType": "uint256",
          "name": "",
          "type": "uint256"
        }
      ],
      "stateMutability": "view",
      "type": "function",
      "constant": true
    },
    {
      "inputs": [],
      "name": "l_l",
      "outputs": [
        {
          "internalType": "address[]",
          "name": "",
          "type": "address[]"
        }
      ],
      "stateMutability": "view",
      "type": "function",
      "constant": true
    },
    {
      "inputs": [
        {
          "internalType": "address",
          "name": "addr",
          "type": "address"
        }
      ],
      "name": "get_borrower",
      "outputs": [
        {
          "internalType": "string",
          "name": "",
          "type": "string"
        },
        {
          "internalType": "string",
          "name": "",
          "type": "string"
        },
        {
          "internalType": "string",
          "name": "",
          "type": "string"
        },
        {
          "internalType": "string",
          "name": "",
          "type": "string"
        },
        {
          "internalType": "uint256",
          "name": "",
          "type": "uint256"
        },
        {
          "internalType": "uint256",
          "name": "",
          "type": "uint256"
        },
        {
          "internalType": "string",
          "name": "",
          "type": "string"
        },
        {
          "internalType": "uint256",
          "name": "",
          "type": "uint256"
        },
        {
          "internalType": "uint256",
          "name": "",
          "type": "uint256"
        },
        {
          "internalType": "uint256",
          "name": "",
          "type": "uint256"
        }
      ],
      "stateMutability": "view",
      "type": "function",
      "constant": true
    },
    {
      "inputs": [
        {
          "internalType": "address",
          "name": "addr",
          "type": "address"
        }
      ],
      "name": "loan_data",
      "outputs": [
        {
          "internalType": "string",
          "name": "",
          "type": "string"
        },
        {
          "internalType": "uint256",
          "name": "",
          "type": "uint256"
        },
        {
          "internalType": "string",
          "name": "",
          "type": "string"
        },
        {
          "internalType": "uint256",
          "name": "",
          "type": "uint256"
        }
      ],
      "stateMutability": "view",
      "type": "function",
      "constant": true
    },
    {
      "inputs": [
        {
          "internalType": "address",
          "name": "addr",
          "type": "address"
        }
      ],
      "name": "get_lender",
      "outputs": [
        {
          "internalType": "string",
          "name": "",
          "type": "string"
        },
        {
          "internalType": "string",
          "name": "",
          "type": "string"
        },
        {
          "internalType": "string",
          "name": "",
          "type": "string"
        },
        {
          "internalType": "string",
          "name": "",
          "type": "string"
        }
      ],
      "stateMutability": "view",
      "type": "function",
      "constant": true
    },
    {
      "inputs": [],
      "name": "get_borrower_list",
      "outputs": [
        {
          "internalType": "address[]",
          "name": "",
          "type": "address[]"
        }
      ],
      "stateMutability": "view",
      "type": "function",
      "constant": true
    },
    {
      "inputs": [],
      "name": "get_lender_list",
      "outputs": [
        {
          "internalType": "address[]",
          "name": "",
          "type": "address[]"
        }
      ],
      "stateMutability": "view",
      "type": "function",
      "constant": true
    },
    {
      "inputs": [
        {
          "internalType": "address",
          "name": "acc_address",
          "type": "address"
        },
        {
          "internalType": "uint256",
          "name": "l_amount",
          "type": "uint256"
        },
        {
          "internalType": "string",
          "name": "purpose",
          "type": "string"
        }
      ],
      "name": "reg_loan",
      "outputs": [],
      "stateMutability": "nonpayable",
      "type": "function"
    }
  ],
  "bytecode": "0x60806040526002805564174876e800600855600160095534801561002257600080fd5b50612283806100326000396000f3fe6080604052600436106100c25760003560e01c8063522ac9c01161007f578063b1f07cfd11610059578063b1f07cfd14610295578063cf3a5a1c146102d2578063d038487114610312578063d08e72791461034f576100c2565b8063522ac9c0146102115780636bd04e56146102415780637cfc34221461026c576100c2565b80630b7ea49e146100c757806312065fe0146100f757806324422f43146101235780633323eab0146101605780633f8ee26b146101a05780634e94b75d146101cb575b600080fd5b6100e160048036038101906100dc9190611768565b61037a565b6040516100ee91906117b7565b60405180910390f35b34801561010357600080fd5b5061010c6103e8565b60405161011a9291906117d2565b60405180910390f35b34801561012f57600080fd5b5061014a60048036038101906101459190611941565b6103f7565b6040516101579190611b2b565b60405180910390f35b34801561016c57600080fd5b5061018760048036038101906101829190611b8b565b6107d8565b6040516101979493929190611bb8565b60405180910390f35b3480156101ac57600080fd5b506101b5610a11565b6040516101c29190611cc9565b60405180910390f35b3480156101d757600080fd5b506101f260048036038101906101ed9190611b8b565b610a9f565b6040516102089a99989796959493929190611ceb565b60405180910390f35b61022b60048036038101906102269190611daa565b610f81565b60405161023891906117b7565b60405180910390f35b34801561024d57600080fd5b50610256610fd2565b6040516102639190611cc9565b60405180910390f35b34801561027857600080fd5b50610293600480360381019061028e9190611dd7565b611060565b005b3480156102a157600080fd5b506102bc60048036038101906102b79190611e46565b61115f565b6040516102c99190611e82565b60405180910390f35b3480156102de57600080fd5b506102f960048036038101906102f49190611b8b565b61119e565b6040516103099493929190611e9d565b60405180910390f35b34801561031e57600080fd5b5061033960048036038101906103349190611e46565b6114eb565b6040516103469190611e82565b60405180910390f35b34801561035b57600080fd5b5061036461152a565b6040516103719190611cc9565b60405180910390f35b6000620186a08261038b9190611f2d565b341461039657600080fd5b8273ffffffffffffffffffffffffffffffffffffffff166108fc349081150290604051600060405180830381858888f193505050501580156103dc573d6000803e3d6000fd5b50600954905092915050565b60008060095442915091509091565b6060600033905060008a036106115761040e6115b8565b8c81602001819052508981608001819052508b8160400181905250888160a0018190525087816000018181525050868160c0018181525050858160e00181905250848161010001818152505083816101200181815250506000816101400181815250506040518060200160405280600081525081610160018190525080600660003373ffffffffffffffffffffffffffffffffffffffff1673ffffffffffffffffffffffffffffffffffffffff1681526020019081526020016000206000820151816000015560208201518160010190816104e9919061217b565b5060408201518160020190816104ff919061217b565b50606082015181600301908051906020019061051c929190611619565b506080820151816004019081610532919061217b565b5060a0820151816005019081610548919061217b565b5060c0820151816006015560e0820151816007019081610568919061217b565b506101008201518160080155610120820151816009015561014082015181600a015561016082015181600b0190816105a0919061217b565b509050506004829080600181540180825580915050600190039060005260206000200160009091909190916101000a81548173ffffffffffffffffffffffffffffffffffffffff021916908373ffffffffffffffffffffffffffffffffffffffff1602179055508c925050506107ca565b60018a036107c5578b600760008373ffffffffffffffffffffffffffffffffffffffff1673ffffffffffffffffffffffffffffffffffffffff1681526020019081526020016000206000019081610668919061217b565b5088600760008373ffffffffffffffffffffffffffffffffffffffff1673ffffffffffffffffffffffffffffffffffffffff16815260200190815260200160002060010190816106b8919061217b565b5087600760008373ffffffffffffffffffffffffffffffffffffffff1673ffffffffffffffffffffffffffffffffffffffff1681526020019081526020016000206003019081610708919061217b565b508a600760008373ffffffffffffffffffffffffffffffffffffffff1673ffffffffffffffffffffffffffffffffffffffff1681526020019081526020016000206004019081610758919061217b565b506005819080600181540180825580915050600190039060005260206000200160009091909190916101000a81548173ffffffffffffffffffffffffffffffffffffffff021916908373ffffffffffffffffffffffffffffffffffffffff1602179055508b9150506107ca565b600080fd5b9a9950505050505050505050565b6060600060606000600660008673ffffffffffffffffffffffffffffffffffffffff1673ffffffffffffffffffffffffffffffffffffffff168152602001908152602001600020600101600660008773ffffffffffffffffffffffffffffffffffffffff1673ffffffffffffffffffffffffffffffffffffffff16815260200190815260200160002060060154600660008873ffffffffffffffffffffffffffffffffffffffff1673ffffffffffffffffffffffffffffffffffffffff168152602001908152602001600020600b01600660008973ffffffffffffffffffffffffffffffffffffffff1673ffffffffffffffffffffffffffffffffffffffff168152602001908152602001600020600a01548380546108f690611f9e565b80601f016020809104026020016040519081016040528092919081815260200182805461092290611f9e565b801561096f5780601f106109445761010080835404028352916020019161096f565b820191906000526020600020905b81548152906001019060200180831161095257829003601f168201915b5050505050935081805461098290611f9e565b80601f01602080910402602001604051908101604052809291908181526020018280546109ae90611f9e565b80156109fb5780601f106109d0576101008083540402835291602001916109fb565b820191906000526020600020905b8154815290600101906020018083116109de57829003601f168201915b5050505050915093509350935093509193509193565b60606004805480602002602001604051908101604052809291908181526020018280548015610a9557602002820191906000526020600020905b8160009054906101000a900473ffffffffffffffffffffffffffffffffffffffff1673ffffffffffffffffffffffffffffffffffffffff1681526020019060010190808311610a4b575b5050505050905090565b6060806060806000806060600080600080600660008d73ffffffffffffffffffffffffffffffffffffffff1673ffffffffffffffffffffffffffffffffffffffff1681526020019081526020016000206040518061018001604052908160008201548152602001600182018054610b1590611f9e565b80601f0160208091040260200160405190810160405280929190818152602001828054610b4190611f9e565b8015610b8e5780601f10610b6357610100808354040283529160200191610b8e565b820191906000526020600020905b815481529060010190602001808311610b7157829003601f168201915b50505050508152602001600282018054610ba790611f9e565b80601f0160208091040260200160405190810160405280929190818152602001828054610bd390611f9e565b8015610c205780601f10610bf557610100808354040283529160200191610c20565b820191906000526020600020905b815481529060010190602001808311610c0357829003601f168201915b5050505050815260200160038201805480602002602001604051908101604052809291908181526020018280548015610cae57602002820191906000526020600020905b8160009054906101000a900473ffffffffffffffffffffffffffffffffffffffff1673ffffffffffffffffffffffffffffffffffffffff1681526020019060010190808311610c64575b50505050508152602001600482018054610cc790611f9e565b80601f0160208091040260200160405190810160405280929190818152602001828054610cf390611f9e565b8015610d405780601f10610d1557610100808354040283529160200191610d40565b820191906000526020600020905b815481529060010190602001808311610d2357829003601f168201915b50505050508152602001600582018054610d5990611f9e565b80601f0160208091040260200160405190810160405280929190818152602001828054610d8590611f9e565b8015610dd25780601f10610da757610100808354040283529160200191610dd2565b820191906000526020600020905b815481529060010190602001808311610db557829003601f168201915b5050505050815260200160068201548152602001600782018054610df590611f9e565b80601f0160208091040260200160405190810160405280929190818152602001828054610e2190611f9e565b8015610e6e5780601f10610e4357610100808354040283529160200191610e6e565b820191906000526020600020905b815481529060010190602001808311610e5157829003601f168201915b505050505081526020016008820154815260200160098201548152602001600a8201548152602001600b82018054610ea590611f9e565b80601f0160208091040260200160405190810160405280929190818152602001828054610ed190611f9e565b8015610f1e5780601f10610ef357610100808354040283529160200191610f1e565b820191906000526020600020905b815481529060010190602001808311610f0157829003601f168201915b5050505050815250509050806020015181608001518260a00151836040015184600001518561014001518661016001518761010001518861012001518960c001519a509a509a509a509a509a509a509a509a509a50509193959799509193959799565b60008173ffffffffffffffffffffffffffffffffffffffff166108fc349081150290604051600060405180830381858888f19350505050158015610fc9573d6000803e3d6000fd5b50349050919050565b6060600380548060200260200160405190810160405280929190818152602001828054801561105657602002820191906000526020600020905b8160009054906101000a900473ffffffffffffffffffffffffffffffffffffffff1673ffffffffffffffffffffffffffffffffffffffff168152602001906001019080831161100c575b5050505050905090565b81600660008573ffffffffffffffffffffffffffffffffffffffff1673ffffffffffffffffffffffffffffffffffffffff168152602001908152602001600020600a018190555080600660008573ffffffffffffffffffffffffffffffffffffffff1673ffffffffffffffffffffffffffffffffffffffff168152602001908152602001600020600b0190816110f6919061217b565b506003839080600181540180825580915050600190039060005260206000200160009091909190916101000a81548173ffffffffffffffffffffffffffffffffffffffff021916908373ffffffffffffffffffffffffffffffffffffffff160217905550505050565b6004818154811061116f57600080fd5b906000526020600020016000915054906101000a900473ffffffffffffffffffffffffffffffffffffffff1681565b606080606080600760008673ffffffffffffffffffffffffffffffffffffffff1673ffffffffffffffffffffffffffffffffffffffff168152602001908152602001600020600001600760008773ffffffffffffffffffffffffffffffffffffffff1673ffffffffffffffffffffffffffffffffffffffff168152602001908152602001600020600401600760008873ffffffffffffffffffffffffffffffffffffffff1673ffffffffffffffffffffffffffffffffffffffff168152602001908152602001600020600301600760008973ffffffffffffffffffffffffffffffffffffffff1673ffffffffffffffffffffffffffffffffffffffff1681526020019081526020016000206001018380546112b890611f9e565b80601f01602080910402602001604051908101604052809291908181526020018280546112e490611f9e565b80156113315780601f1061130657610100808354040283529160200191611331565b820191906000526020600020905b81548152906001019060200180831161131457829003601f168201915b5050505050935082805461134490611f9e565b80601f016020809104026020016040519081016040528092919081815260200182805461137090611f9e565b80156113bd5780601f10611392576101008083540402835291602001916113bd565b820191906000526020600020905b8154815290600101906020018083116113a057829003601f168201915b505050505092508180546113d090611f9e565b80601f01602080910402602001604051908101604052809291908181526020018280546113fc90611f9e565b80156114495780601f1061141e57610100808354040283529160200191611449565b820191906000526020600020905b81548152906001019060200180831161142c57829003601f168201915b5050505050915080805461145c90611f9e565b80601f016020809104026020016040519081016040528092919081815260200182805461148890611f9e565b80156114d55780601f106114aa576101008083540402835291602001916114d5565b820191906000526020600020905b8154815290600101906020018083116114b857829003601f168201915b5050505050905093509350935093509193509193565b600581815481106114fb57600080fd5b906000526020600020016000915054906101000a900473ffffffffffffffffffffffffffffffffffffffff1681565b606060058054806020026020016040519081016040528092919081815260200182805480156115ae57602002820191906000526020600020905b8160009054906101000a900473ffffffffffffffffffffffffffffffffffffffff1673ffffffffffffffffffffffffffffffffffffffff1681526020019060010190808311611564575b5050505050905090565b6040518061018001604052806000815260200160608152602001606081526020016060815260200160608152602001606081526020016000815260200160608152602001600081526020016000815260200160008152602001606081525090565b828054828255906000526020600020908101928215611692579160200282015b828111156116915782518260006101000a81548173ffffffffffffffffffffffffffffffffffffffff021916908373ffffffffffffffffffffffffffffffffffffffff16021790555091602001919060010190611639565b5b50905061169f91906116a3565b5090565b5b808211156116bc5760008160009055506001016116a4565b5090565b6000604051905090565b600080fd5b600080fd5b600073ffffffffffffffffffffffffffffffffffffffff82169050919050565b60006116ff826116d4565b9050919050565b61170f816116f4565b811461171a57600080fd5b50565b60008135905061172c81611706565b92915050565b6000819050919050565b61174581611732565b811461175057600080fd5b50565b6000813590506117628161173c565b92915050565b6000806040838503121561177f5761177e6116ca565b5b600061178d8582860161171d565b925050602061179e85828601611753565b9150509250929050565b6117b181611732565b82525050565b60006020820190506117cc60008301846117a8565b92915050565b60006040820190506117e760008301856117a8565b6117f460208301846117a8565b9392505050565b600080fd5b600080fd5b6000601f19601f8301169050919050565b7f4e487b7100000000000000000000000000000000000000000000000000000000600052604160045260246000fd5b61184e82611805565b810181811067ffffffffffffffff8211171561186d5761186c611816565b5b80604052505050565b60006118806116c0565b905061188c8282611845565b919050565b600067ffffffffffffffff8211156118ac576118ab611816565b5b6118b582611805565b9050602081019050919050565b82818337600083830152505050565b60006118e46118df84611891565b611876565b905082815260208101848484011115611900576118ff611800565b5b61190b8482856118c2565b509392505050565b600082601f830112611928576119276117fb565b5b81356119388482602086016118d1565b91505092915050565b6000806000806000806000806000806101408b8d031215611965576119646116ca565b5b60008b013567ffffffffffffffff811115611983576119826116cf565b5b61198f8d828e01611913565b9a505060208b013567ffffffffffffffff8111156119b0576119af6116cf565b5b6119bc8d828e01611913565b99505060406119cd8d828e01611753565b98505060608b013567ffffffffffffffff8111156119ee576119ed6116cf565b5b6119fa8d828e01611913565b97505060808b013567ffffffffffffffff811115611a1b57611a1a6116cf565b5b611a278d828e01611913565b96505060a0611a388d828e01611753565b95505060c0611a498d828e01611753565b94505060e08b013567ffffffffffffffff811115611a6a57611a696116cf565b5b611a768d828e01611913565b935050610100611a888d828e01611753565b925050610120611a9a8d828e01611753565b9150509295989b9194979a5092959850565b600081519050919050565b600082825260208201905092915050565b60005b83811015611ae6578082015181840152602081019050611acb565b60008484015250505050565b6000611afd82611aac565b611b078185611ab7565b9350611b17818560208601611ac8565b611b2081611805565b840191505092915050565b60006020820190508181036000830152611b458184611af2565b905092915050565b6000611b58826116d4565b9050919050565b611b6881611b4d565b8114611b7357600080fd5b50565b600081359050611b8581611b5f565b92915050565b600060208284031215611ba157611ba06116ca565b5b6000611baf84828501611b76565b91505092915050565b60006080820190508181036000830152611bd28187611af2565b9050611be160208301866117a8565b8181036040830152611bf38185611af2565b9050611c0260608301846117a8565b95945050505050565b600081519050919050565b600082825260208201905092915050565b6000819050602082019050919050565b611c4081611b4d565b82525050565b6000611c528383611c37565b60208301905092915050565b6000602082019050919050565b6000611c7682611c0b565b611c808185611c16565b9350611c8b83611c27565b8060005b83811015611cbc578151611ca38882611c46565b9750611cae83611c5e565b925050600181019050611c8f565b5085935050505092915050565b60006020820190508181036000830152611ce38184611c6b565b905092915050565b6000610140820190508181036000830152611d06818d611af2565b90508181036020830152611d1a818c611af2565b90508181036040830152611d2e818b611af2565b90508181036060830152611d42818a611af2565b9050611d5160808301896117a8565b611d5e60a08301886117a8565b81810360c0830152611d708187611af2565b9050611d7f60e08301866117a8565b611d8d6101008301856117a8565b611d9b6101208301846117a8565b9b9a5050505050505050505050565b600060208284031215611dc057611dbf6116ca565b5b6000611dce8482850161171d565b91505092915050565b600080600060608486031215611df057611def6116ca565b5b6000611dfe86828701611b76565b9350506020611e0f86828701611753565b925050604084013567ffffffffffffffff811115611e3057611e2f6116cf565b5b611e3c86828701611913565b9150509250925092565b600060208284031215611e5c57611e5b6116ca565b5b6000611e6a84828501611753565b91505092915050565b611e7c81611b4d565b82525050565b6000602082019050611e976000830184611e73565b92915050565b60006080820190508181036000830152611eb78187611af2565b90508181036020830152611ecb8186611af2565b90508181036040830152611edf8185611af2565b90508181036060830152611ef38184611af2565b905095945050505050565b7f4e487b7100000000000000000000000000000000000000000000000000000000600052601160045260246000fd5b6000611f3882611732565b9150611f4383611732565b9250828202611f5181611732565b91508282048414831517611f6857611f67611efe565b5b5092915050565b7f4e487b7100000000000000000000000000000000000000000000000000000000600052602260045260246000fd5b60006002820490506001821680611fb657607f821691505b602082108103611fc957611fc8611f6f565b5b50919050565b60008190508160005260206000209050919050565b60006020601f8301049050919050565b600082821b905092915050565b6000600883026120317fffffffffffffffffffffffffffffffffffffffffffffffffffffffffffffffff82611ff4565b61203b8683611ff4565b95508019841693508086168417925050509392505050565b6000819050919050565b600061207861207361206e84611732565b612053565b611732565b9050919050565b6000819050919050565b6120928361205d565b6120a661209e8261207f565b848454612001565b825550505050565b600090565b6120bb6120ae565b6120c6818484612089565b505050565b5b818110156120ea576120df6000826120b3565b6001810190506120cc565b5050565b601f82111561212f5761210081611fcf565b61210984611fe4565b81016020851015612118578190505b61212c61212485611fe4565b8301826120cb565b50505b505050565b600082821c905092915050565b600061215260001984600802612134565b1980831691505092915050565b600061216b8383612141565b9150826002028217905092915050565b61218482611aac565b67ffffffffffffffff81111561219d5761219c611816565b5b6121a78254611f9e565b6121b28282856120ee565b600060209050601f8311600181146121e557600084156121d3578287015190505b6121dd858261215f565b865550612245565b601f1984166121f386611fcf565b60005b8281101561221b578489015182556001820191506020850194506020810190506121f6565b868310156122385784890151612234601f891682612141565b8355505b6001600288020188555050505b50505050505056fea2646970667358221220b9bf611acafaaf76555ed3f1e2123c1124f8d4c740684f278d5b69f4da72bda464736f6c63430008110033",
  "immutableReferences": {},
  "source": "// SPDX-License-Identifier: MIT\npragma solidity >=0.4.22 <0.9.0;\n\n// contract mini {\n//   constructor() public {\n//   }\n// }\n\n\n// pragma solidity >=0.8.16;\n\n// import \"@chainlink/contracts/src/v0.8/interfaces/AggregatorV3Interface.sol\";\ncontract mini {\n    uint256 amt;\n    uint256 val;\n    uint256 intrest = 2;\n    // constructor() public {}\n\n    struct borower {\n        uint256 score;\n        string name;\n        string email;\n        address[] borrower_list;\n        string aadhar;\n        string pan;\n        uint256 phone;\n        string gender;\n        uint256 a_income;\n        uint256 no_of_dependents;\n        uint256 loan_amountt;\n        string l_purpose;\n    }\n\n    struct lender {\n        string name;\n        string aadhar;\n        address[] lender_list;\n        string pan;\n        string email;\n    }\n    address[] loans;\n    address[] public borower_list;\n    address[] public lender_list;\n\n    mapping(address => borower) borowerInfo;\n    mapping(address => lender) lenderInfo;\n    // var date=new Date();\n    // uint deposit;\n    // constructor() public {\n    //     amt=0;\n    //     val=1000;\n    // }\n    // mapping(address => uint) borower_addr,lender_addr;\n    // TODO:ABI bytecode in js\n    uint256 PAISA = 10 * 1e10;\n    uint256 aa = 1;\n\n    // function user(string memory name,string memory email,uint256 pos,string memory aadhar,string memory pan,uint256 score,uint256 a_income,uint256 no_depends,string memory gender,uint256 phone_no) public returns (string memory) {\n    function user(\n        string memory name,\n        string memory email,\n        uint256 pos,\n        string memory aadhar,\n        string memory pan,\n        uint256 score,\n        uint256 phone,\n        string memory gender,\n        uint256 a_income,\n        uint256 no_of_depeden\n    ) public returns (string memory) {\n        // TODO: add loan wala in function\n        address addr = msg.sender;\n        if (pos == 0) {\n            borower memory b;\n            b.name = name;\n            b.aadhar = aadhar;\n            b.email = email;\n            b.pan = pan;\n            b.score = score;\n            b.phone = phone;\n            b.gender = gender;\n            b.a_income = a_income;\n            b.no_of_dependents = no_of_depeden;\n            b.loan_amountt = 0;\n            b.l_purpose = \"\";\n            borowerInfo[msg.sender] = b;\n            borower_list.push(addr);\n            return name;\n        } else if (pos == 1) {\n            lenderInfo[addr].name = name;\n            lenderInfo[addr].aadhar = aadhar;\n            lenderInfo[addr].pan = pan;\n            lenderInfo[addr].email = email;\n\n            lender_list.push(addr);\n            return name;\n        } else {\n            revert();\n        }\n    }\n\n    function sendmoney(address payable to, uint256 paisaa)\n        public\n        payable\n        returns (uint256)\n    {\n        // 0xEbaCb721c58F7570c67E2eD4BdFd2367e48734CF-\n        // amt=amountt\n        // amt=amountt;\n        // return amountt;\n        // 0xa1079d642a30adf6b7128e592406dc6434366910 matic/usd\n        // require(getConversion(1*1e10) >= 0,\"ERROR NO funds\"); //1*10**18=100000000000000000 wei / 1 ether (set a min limit of 1 ethr)\n        // getConversion(msg.value);\n        // getConversion(msg.value)\n        require(msg.value == paisaa * 100000);\n        to.transfer(msg.value);\n        return aa;\n    }\n    function sendmoneyy(address payable to)\n        public\n        payable\n        returns (uint256)\n    {\n        // amt=amountt\n        // amt=amountt;\n        // return amountt;\n        // 0xa1079d642a30adf6b7128e592406dc6434366910 matic/usd\n        // require(getConversion(1*1e10) >= 0,\"ERROR NO funds\"); //1*10**18=100000000000000000 wei / 1 ether (set a min limit of 1 ethr)\n        // getConversion(msg.value);\n        // getConversion(msg.value)\n        // aa = paisaa * 100000;\n        to.transfer(msg.value);\n        return msg.value;\n    }\n\n\n\n    function getBalance() public view returns (uint256, uint256) {\n        // var time=now;\n        return (aa, block.timestamp);\n    }\n\n    function l_l() public view returns (address[] memory) {\n        return loans;\n    }\n\n    //         uint score;\n    //         string name;\n    //         string email;\n    //         address[] borrower_list;\n    //         string aadhar;\n    //         string pan;\n    //         uint256 phone;\n    //         string gender;\n    //         uint256 a_income;\n    //         uint256 no_of_dependents;\n    //         uint256 loan_amountt;\n    //         string l_purpose;\n    function get_borrower(address addr)\n        public\n        view\n        returns (\n            string memory,\n            string memory,\n            string memory,\n            string memory,\n            uint256,\n            uint256,\n            string memory,\n            uint256,\n            uint256,uint256\n        )\n    {\n        // if(keccak256(patientInfo[addr].name) == keccak256(\"\"))revert();\n        borower memory bb = borowerInfo[addr];\n        return (\n            bb.name,\n            bb.aadhar,\n            bb.pan,\n            bb.email,\n           bb.score,\n            bb.loan_amountt,\n            bb.l_purpose,\n           bb.a_income,\n           bb.no_of_dependents,\n           bb.phone\n        );\n    }\n\n    function loan_data(address addr)\n        public\n        view\n        returns (\n            string memory,\n            uint256,\n            string memory,\n            uint256\n        )\n    {\n        // if(keccak256(patientInfo[addr].name) == keccak256(\"\"))revert();\n        return (\n            borowerInfo[addr].name,\n            borowerInfo[addr].phone,\n            borowerInfo[addr].l_purpose,\n            borowerInfo[addr].loan_amountt\n        );\n    }\n\n    function get_lender(address addr)\n        public\n        view\n        returns (\n            string memory,\n            string memory,\n            string memory,\n            string memory\n        )\n    {\n        // if(keccak256(doctorInfo[addr].name)==keccak256(\"\"))revert();\n        return (\n            lenderInfo[addr].name,\n            lenderInfo[addr].email,\n            lenderInfo[addr].pan,\n            lenderInfo[addr].aadhar\n        );\n    }\n\n    function get_borrower_list() public view returns (address[] memory) {\n        return borower_list;\n    }\n\n    function get_lender_list() public view returns (address[] memory) {\n        return lender_list;\n    }\n\n    function reg_loan(\n        address acc_address,\n        uint256 l_amount,\n        string memory purpose\n    ) public {\n        // string memory a=keccak256(l_amount+purpose);\n        borowerInfo[acc_address].loan_amountt = l_amount;\n        borowerInfo[acc_address].l_purpose = purpose;\n        loans.push(acc_address);\n        // loans.push(keccak256(abi.encodePacked(string.concat(l_amount,purpose))));\n        // return keccak256(l_amount+purpose);\n    }\n\n    // function getprice()public view returns(uint256){\n    //     AggregatorV3Interface interfacee = AggregatorV3Interface(0xABc7e638362feaEA6De0299A7eB05AD653A97553);\n    //     (,int256 price,,,) = interfacee.latestRoundData();\n    //     return uint256(price*1e10);\n\n    // }\n\n    // function getConversion(uint256 amount)public view returns(uint256){\n    //     uint256 price=getprice();\n    //     uint256 convert_price=(price*amount)/1e18;\n    //     return convert_price;\n\n    // }\n\n    // function withdraw(){}\n\n    // function getBalance()public view returns(uint){\n    //     return val;\n    // }\n    // // function getAmt() public view returns(uint){\n    //     return amt;\n    // }\n    // function send() public returns(uint deposit){\n    //     val=val-deposit;\n    //     amt=val+deposit;\n    // }\n}\n",
  "sourcePath": "C:\\Users\\praveen\\Downloads\\p2p_lending 2 (1)\\p2p_lending\\contracts\\mini.sol",
  "compiler": {
    "name": "solc",
    "version": "0.8.17+commit.8df45f5f.Emscripten.clang"
  },
  "schemaVersion": "3.4.11",
  "updatedAt": "2023-01-18T09:35:51.589Z",
  "networkType": "ethereum",
  "devdoc": {
    "kind": "dev",
    "methods": {},
    "version": 1
  },
  "userdoc": {
    "kind": "user",
    "methods": {},
    "version": 1
  }
}